{
  "contractName": "Marketplace",
  "abi": [
    {
      "inputs": [],
      "stateMutability": "nonpayable",
      "type": "constructor"
    },
    {
      "anonymous": false,
      "inputs": [
        {
          "indexed": false,
          "internalType": "uint256",
          "name": "id",
          "type": "uint256"
        },
        {
          "indexed": false,
          "internalType": "string",
          "name": "name",
          "type": "string"
        },
        {
          "indexed": false,
          "internalType": "uint256",
          "name": "price",
          "type": "uint256"
        },
        {
          "indexed": false,
          "internalType": "address",
          "name": "owner",
          "type": "address"
        },
        {
          "indexed": false,
          "internalType": "bool",
          "name": "purchased",
          "type": "bool"
        }
      ],
      "name": "ProductCreated",
      "type": "event"
    },
    {
      "anonymous": false,
      "inputs": [
        {
          "indexed": false,
          "internalType": "uint256",
          "name": "id",
          "type": "uint256"
        },
        {
          "indexed": false,
          "internalType": "string",
          "name": "name",
          "type": "string"
        },
        {
          "indexed": false,
          "internalType": "uint256",
          "name": "price",
          "type": "uint256"
        },
        {
          "indexed": false,
          "internalType": "address",
          "name": "owner",
          "type": "address"
        },
        {
          "indexed": false,
          "internalType": "bool",
          "name": "purchased",
          "type": "bool"
        }
      ],
      "name": "ProductPurchased",
      "type": "event"
    },
    {
      "inputs": [],
      "name": "name",
      "outputs": [
        {
          "internalType": "string",
          "name": "",
          "type": "string"
        }
      ],
      "stateMutability": "view",
      "type": "function",
      "constant": true
    },
    {
      "inputs": [],
      "name": "owner",
      "outputs": [
        {
          "internalType": "address payable",
          "name": "",
          "type": "address"
        }
      ],
      "stateMutability": "view",
      "type": "function",
      "constant": true
    },
    {
      "inputs": [],
      "name": "productCount",
      "outputs": [
        {
          "internalType": "uint256",
          "name": "",
          "type": "uint256"
        }
      ],
      "stateMutability": "view",
      "type": "function",
      "constant": true
    },
    {
      "inputs": [
        {
          "internalType": "uint256",
          "name": "",
          "type": "uint256"
        }
      ],
      "name": "products",
      "outputs": [
        {
          "internalType": "uint256",
          "name": "id",
          "type": "uint256"
        },
        {
          "internalType": "string",
          "name": "name",
          "type": "string"
        },
        {
          "internalType": "uint256",
          "name": "price",
          "type": "uint256"
        },
        {
          "internalType": "address payable",
          "name": "owner",
          "type": "address"
        },
        {
          "internalType": "bool",
          "name": "purchased",
          "type": "bool"
        }
      ],
      "stateMutability": "view",
      "type": "function",
      "constant": true
    },
    {
      "inputs": [
        {
          "internalType": "string",
          "name": "_name",
          "type": "string"
        },
        {
          "internalType": "uint256",
          "name": "_price",
          "type": "uint256"
        }
      ],
      "name": "createProduct",
      "outputs": [],
      "stateMutability": "nonpayable",
      "type": "function"
    },
    {
      "inputs": [
        {
          "internalType": "uint256",
          "name": "_id",
          "type": "uint256"
        }
      ],
      "name": "purchaseProduct",
      "outputs": [],
      "stateMutability": "payable",
      "type": "function",
      "payable": true
    }
  ],
  "bytecode": "0x608060405260006001553480156200001657600080fd5b506040518060400160405280600b81526020017f4d61726b6574706c6163650000000000000000000000000000000000000000008152506000908051906020019062000064929190620002df565b5033600260006101000a81548173ffffffffffffffffffffffffffffffffffffffff021916908373ffffffffffffffffffffffffffffffffffffffff160217905550620000f56040518060400160405280600b81526020017f4d6163426f6f6b2050726f0000000000000000000000000000000000000000008152506729a2241af62c0000620000fb60201b60201c565b620006e8565b600082511162000142576040517f08c379a00000000000000000000000000000000000000000000000000000000081526004016200013990620003f0565b60405180910390fd5b6000811162000188576040517f08c379a00000000000000000000000000000000000000000000000000000000081526004016200017f9062000462565b60405180910390fd5b60018060008282546200019c9190620004bd565b925050819055506040518060a0016040528060015481526020018381526020018281526020013373ffffffffffffffffffffffffffffffffffffffff1681526020016000151581525060036000600154815260200190815260200160002060008201518160000155602082015181600101908051906020019062000222929190620002df565b506040820151816002015560608201518160030160006101000a81548173ffffffffffffffffffffffffffffffffffffffff021916908373ffffffffffffffffffffffffffffffffffffffff16021790555060808201518160030160146101000a81548160ff0219169083151502179055509050507fbc59c0c8165864dcceb377dd07d8f431d4303f8e501cb0a0374a10cc68d718366001548383336000604051620002d395949392919062000620565b60405180910390a15050565b828054620002ed90620006b3565b90600052602060002090601f0160209004810192826200031157600085556200035d565b82601f106200032c57805160ff19168380011785556200035d565b828001600101855582156200035d579182015b828111156200035c5782518255916020019190600101906200033f565b5b5090506200036c919062000370565b5090565b5b808211156200038b57600081600090555060010162000371565b5090565b600082825260208201905092915050565b7f6e616d652073686f756c64206e6f7420626520656d7074790000000000000000600082015250565b6000620003d86018836200038f565b9150620003e582620003a0565b602082019050919050565b600060208201905081810360008301526200040b81620003c9565b9050919050565b7f70726963652073686f756c64206e6f7420626520300000000000000000000000600082015250565b60006200044a6015836200038f565b9150620004578262000412565b602082019050919050565b600060208201905081810360008301526200047d816200043b565b9050919050565b6000819050919050565b7f4e487b7100000000000000000000000000000000000000000000000000000000600052601160045260246000fd5b6000620004ca8262000484565b9150620004d78362000484565b9250827fffffffffffffffffffffffffffffffffffffffffffffffffffffffffffffffff038211156200050f576200050e6200048e565b5b828201905092915050565b620005258162000484565b82525050565b600081519050919050565b60005b838110156200055657808201518184015260208101905062000539565b8381111562000566576000848401525b50505050565b6000601f19601f8301169050919050565b60006200058a826200052b565b6200059681856200038f565b9350620005a881856020860162000536565b620005b3816200056c565b840191505092915050565b600073ffffffffffffffffffffffffffffffffffffffff82169050919050565b6000620005eb82620005be565b9050919050565b620005fd81620005de565b82525050565b60008115159050919050565b6200061a8162000603565b82525050565b600060a0820190506200063760008301886200051a565b81810360208301526200064b81876200057d565b90506200065c60408301866200051a565b6200066b6060830185620005f2565b6200067a60808301846200060f565b9695505050505050565b7f4e487b7100000000000000000000000000000000000000000000000000000000600052602260045260246000fd5b60006002820490506001821680620006cc57607f821691505b602082108103620006e257620006e162000684565b5b50919050565b6111cd80620006f86000396000f3fe6080604052600436106100555760003560e01c806306fdde031461005a57806338e76a03146100855780637acc0b20146100a15780638da5cb5b146100e2578063e0f6ef871461010d578063e9300c6c14610138575b600080fd5b34801561006657600080fd5b5061006f610161565b60405161007c9190610a3e565b60405180910390f35b61009f600480360381019061009a9190610aaa565b6101ef565b005b3480156100ad57600080fd5b506100c860048036038101906100c39190610aaa565b610613565b6040516100d9959493929190610b42565b60405180910390f35b3480156100ee57600080fd5b506100f76106fe565b6040516101049190610b9c565b60405180910390f35b34801561011957600080fd5b50610122610724565b60405161012f9190610bb7565b60405180910390f35b34801561014457600080fd5b5061015f600480360381019061015a9190610d07565b61072a565b005b6000805461016e90610d92565b80601f016020809104026020016040519081016040528092919081815260200182805461019a90610d92565b80156101e75780601f106101bc576101008083540402835291602001916101e7565b820191906000526020600020905b8154815290600101906020018083116101ca57829003601f168201915b505050505081565b6000600360008381526020019081526020016000206040518060a00160405290816000820154815260200160018201805461022990610d92565b80601f016020809104026020016040519081016040528092919081815260200182805461025590610d92565b80156102a25780601f10610277576101008083540402835291602001916102a2565b820191906000526020600020905b81548152906001019060200180831161028557829003601f168201915b50505050508152602001600282015481526020016003820160009054906101000a900473ffffffffffffffffffffffffffffffffffffffff1673ffffffffffffffffffffffffffffffffffffffff1673ffffffffffffffffffffffffffffffffffffffff1681526020016003820160149054906101000a900460ff1615151515815250509050600081606001519050816080015115610376576040517f08c379a000000000000000000000000000000000000000000000000000000000815260040161036d90610e0f565b60405180910390fd5b600082600001511180156103905750600154826000015111155b6103cf576040517f08c379a00000000000000000000000000000000000000000000000000000000081526004016103c690610e7b565b60405180910390fd5b8160400151341015610416576040517f08c379a000000000000000000000000000000000000000000000000000000000815260040161040d90610f0d565b60405180910390fd5b3373ffffffffffffffffffffffffffffffffffffffff168173ffffffffffffffffffffffffffffffffffffffff1603610484576040517f08c379a000000000000000000000000000000000000000000000000000000000815260040161047b90610f9f565b60405180910390fd5b33826060019073ffffffffffffffffffffffffffffffffffffffff16908173ffffffffffffffffffffffffffffffffffffffff168152505060018260800190151590811515815250508160036000858152602001908152602001600020600082015181600001556020820151816001019080519060200190610507929190610902565b506040820151816002015560608201518160030160006101000a81548173ffffffffffffffffffffffffffffffffffffffff021916908373ffffffffffffffffffffffffffffffffffffffff16021790555060808201518160030160146101000a81548160ff0219169083151502179055509050508073ffffffffffffffffffffffffffffffffffffffff166108fc349081150290604051600060405180830381858888f193505050501580156105c2573d6000803e3d6000fd5b507f79558d0d7d4d900e2f15c4cc0a665f1acdbe415e44de900ecdd1e5bf12b56f4e8383602001518460400151338660800151604051610606959493929190610fe0565b60405180910390a1505050565b600360205280600052604060002060009150905080600001549080600101805461063c90610d92565b80601f016020809104026020016040519081016040528092919081815260200182805461066890610d92565b80156106b55780601f1061068a576101008083540402835291602001916106b5565b820191906000526020600020905b81548152906001019060200180831161069857829003601f168201915b5050505050908060020154908060030160009054906101000a900473ffffffffffffffffffffffffffffffffffffffff16908060030160149054906101000a900460ff16905085565b600260009054906101000a900473ffffffffffffffffffffffffffffffffffffffff1681565b60015481565b600082511161076e576040517f08c379a000000000000000000000000000000000000000000000000000000000815260040161076590611086565b60405180910390fd5b600081116107b1576040517f08c379a00000000000000000000000000000000000000000000000000000000081526004016107a8906110f2565b60405180910390fd5b60018060008282546107c39190611141565b925050819055506040518060a0016040528060015481526020018381526020018281526020013373ffffffffffffffffffffffffffffffffffffffff16815260200160001515815250600360006001548152602001908152602001600020600082015181600001556020820151816001019080519060200190610847929190610902565b506040820151816002015560608201518160030160006101000a81548173ffffffffffffffffffffffffffffffffffffffff021916908373ffffffffffffffffffffffffffffffffffffffff16021790555060808201518160030160146101000a81548160ff0219169083151502179055509050507fbc59c0c8165864dcceb377dd07d8f431d4303f8e501cb0a0374a10cc68d7183660015483833360006040516108f6959493929190610fe0565b60405180910390a15050565b82805461090e90610d92565b90600052602060002090601f0160209004810192826109305760008555610977565b82601f1061094957805160ff1916838001178555610977565b82800160010185558215610977579182015b8281111561097657825182559160200191906001019061095b565b5b5090506109849190610988565b5090565b5b808211156109a1576000816000905550600101610989565b5090565b600081519050919050565b600082825260208201905092915050565b60005b838110156109df5780820151818401526020810190506109c4565b838111156109ee576000848401525b50505050565b6000601f19601f8301169050919050565b6000610a10826109a5565b610a1a81856109b0565b9350610a2a8185602086016109c1565b610a33816109f4565b840191505092915050565b60006020820190508181036000830152610a588184610a05565b905092915050565b6000604051905090565b600080fd5b600080fd5b6000819050919050565b610a8781610a74565b8114610a9257600080fd5b50565b600081359050610aa481610a7e565b92915050565b600060208284031215610ac057610abf610a6a565b5b6000610ace84828501610a95565b91505092915050565b610ae081610a74565b82525050565b600073ffffffffffffffffffffffffffffffffffffffff82169050919050565b6000610b1182610ae6565b9050919050565b610b2181610b06565b82525050565b60008115159050919050565b610b3c81610b27565b82525050565b600060a082019050610b576000830188610ad7565b8181036020830152610b698187610a05565b9050610b786040830186610ad7565b610b856060830185610b18565b610b926080830184610b33565b9695505050505050565b6000602082019050610bb16000830184610b18565b92915050565b6000602082019050610bcc6000830184610ad7565b92915050565b600080fd5b600080fd5b7f4e487b7100000000000000000000000000000000000000000000000000000000600052604160045260246000fd5b610c14826109f4565b810181811067ffffffffffffffff82111715610c3357610c32610bdc565b5b80604052505050565b6000610c46610a60565b9050610c528282610c0b565b919050565b600067ffffffffffffffff821115610c7257610c71610bdc565b5b610c7b826109f4565b9050602081019050919050565b82818337600083830152505050565b6000610caa610ca584610c57565b610c3c565b905082815260208101848484011115610cc657610cc5610bd7565b5b610cd1848285610c88565b509392505050565b600082601f830112610cee57610ced610bd2565b5b8135610cfe848260208601610c97565b91505092915050565b60008060408385031215610d1e57610d1d610a6a565b5b600083013567ffffffffffffffff811115610d3c57610d3b610a6f565b5b610d4885828601610cd9565b9250506020610d5985828601610a95565b9150509250929050565b7f4e487b7100000000000000000000000000000000000000000000000000000000600052602260045260246000fd5b60006002820490506001821680610daa57607f821691505b602082108103610dbd57610dbc610d63565b5b50919050565b7f70726f6475637420616c72656164792070757263686173656400000000000000600082015250565b6000610df96019836109b0565b9150610e0482610dc3565b602082019050919050565b60006020820190508181036000830152610e2881610dec565b9050919050565b7f696420697320696e76616c696400000000000000000000000000000000000000600082015250565b6000610e65600d836109b0565b9150610e7082610e2f565b602082019050919050565b60006020820190508181036000830152610e9481610e58565b9050919050565b7f74686520616d6f756e74206f6620707572636861736520696e206e6f7420656e60008201527f6f75676800000000000000000000000000000000000000000000000000000000602082015250565b6000610ef76024836109b0565b9150610f0282610e9b565b604082019050919050565b60006020820190508181036000830152610f2681610eea565b9050919050565b7f796f7520617265206e6f7420616c6c6f7720746f2062757920796f7572206f7760008201527f6e2070726f647563740000000000000000000000000000000000000000000000602082015250565b6000610f896029836109b0565b9150610f9482610f2d565b604082019050919050565b60006020820190508181036000830152610fb881610f7c565b9050919050565b6000610fca82610ae6565b9050919050565b610fda81610fbf565b82525050565b600060a082019050610ff56000830188610ad7565b81810360208301526110078187610a05565b90506110166040830186610ad7565b6110236060830185610fd1565b6110306080830184610b33565b9695505050505050565b7f6e616d652073686f756c64206e6f7420626520656d7074790000000000000000600082015250565b60006110706018836109b0565b915061107b8261103a565b602082019050919050565b6000602082019050818103600083015261109f81611063565b9050919050565b7f70726963652073686f756c64206e6f7420626520300000000000000000000000600082015250565b60006110dc6015836109b0565b91506110e7826110a6565b602082019050919050565b6000602082019050818103600083015261110b816110cf565b9050919050565b7f4e487b7100000000000000000000000000000000000000000000000000000000600052601160045260246000fd5b600061114c82610a74565b915061115783610a74565b9250827fffffffffffffffffffffffffffffffffffffffffffffffffffffffffffffffff0382111561118c5761118b611112565b5b82820190509291505056fea2646970667358221220d7a736455dafbb38e082e85a4bc27fb42789b1b1deeeb0d77c5f587dd8d69c2464736f6c634300080d0033",
  "immutableReferences": {},
  "source": "// SPDX-License-Identifier: MIT\npragma solidity >=0.7.0 <0.9.0;\n\ncontract Marketplace {\n  string public name;\n  uint public productCount = 0;\n  address payable public owner;\n\n  struct Product {\n    uint id;\n    string name;\n    uint price;\n    address payable owner;\n    bool purchased;\n  }\n\n  mapping(uint => Product) public products;\n\n  constructor() {\n    name = \"Marketplace\";\n    owner = payable(msg.sender);\n    createProduct(\"MacBook Pro\", 3000000000000000000);\n  }\n\n  event ProductCreated(uint id,string name,uint price,address owner,bool purchased);\n  event ProductPurchased(uint id, string name,uint price, address owner, bool purchased);\n\n  function createProduct(string memory _name, uint _price) public {\n    require(bytes(_name).length > 0, 'name should not be empty');\n    require(_price > 0, 'price should not be 0');\n\n    productCount += 1;\n    products[productCount] = Product(productCount, _name, _price, payable(msg.sender), false);\n    emit ProductCreated(productCount, _name, _price, msg.sender, false);  \n  }\n\n  function purchaseProduct(uint _id) public payable {\n    // fetch product  \n    Product memory _product = products[_id];\n    // fetch owner\n    address payable seller = _product.owner;\n    // check if product is valid \n    require(!_product.purchased, 'product already purchased');\n    // make sure the product has a correct id\n    require(_product.id > 0 && _product.id <= productCount, 'id is invalid'); \n    // make sure that is enough ETH in transaction\n    require(msg.value >= _product.price, 'the amount of purchase in not enough');\n    // make sure that the buyer is not the seller \n    require(seller != msg.sender, 'you are not allow to buy your own product');\n\n    // purchase it    \n    _product.owner = payable(msg.sender);\n    _product.purchased = true;\n    // update the product in mapping\n    products[_id] = _product;\n    // pay the seller by sending them ether\n    seller.transfer(msg.value);\n\n    // triger event \n    emit ProductPurchased(_id, _product.name, _product.price, msg.sender, _product.purchased);\n  }\n}\n",
  "sourcePath": "/Users/danielancuta/Development/blockchain/truffle-react-marketplace/src/contracts/Marketplace.sol",
  "compiler": {
    "name": "solc",
    "version": "0.8.13+commit.abaa5c0e.Emscripten.clang"
  },
  "schemaVersion": "3.4.10",
  "updatedAt": "2022-09-29T17:24:14.201Z",
  "networkType": "ethereum",
  "devdoc": {
    "kind": "dev",
    "methods": {},
    "version": 1
  },
  "userdoc": {
    "kind": "user",
    "methods": {},
    "version": 1
  }
}